:03000000020056A5
:10003000C28D758901758C3C758AB0D28C308DFD6E
:10004000C28CC28D227F141130DFFC22FE7D3C1158
:1000500045DDFCDEF82275817F7800759001C2A035
:10006000C2A1C2A2C2A330B226E8B4000411B28079
:1000700009B4010411DB80023104E8B40004741EE9
:100080008009B40104742D8002743C114C80D72087
:10009000B2FD7FC8DFFE08B803027800E8B40005AF
:1000A00075900180C1B4010575900280B975900406
:1000B00080B4793CD2A01130D9FCC2A07A28D2A158
:1000C0001130DAFCC2A17B28D2A21130DBFCC2A223
:1000D0007C14D2A31130DCFCC2A3227950D2A0112F
:1000E00030D9FCC2A07A3CD2A11130DAFCC2A17B8B
:1000F00028D2A21130DBFCC2A27C28D2A31130DCB2
:10010000FCC2A3227964D2A01130D9FCC2A07A2803
:10011000D2A11130DAFCC2A17B3CD2A21130DBFCAF
:0D012000C2A27C3CD2A31130DCFCC2A322A1
:00000001FF
